{
  "_format": "hh-sol-artifact-1",
  "contractName": "WavePortal",
  "sourceName": "contracts/WavePortal.sol",
  "abi": [
    {
      "inputs": [],
      "stateMutability": "nonpayable",
      "type": "constructor"
    },
    {
      "anonymous": false,
      "inputs": [
        {
          "indexed": true,
          "internalType": "address",
          "name": "from",
          "type": "address"
        },
        {
          "indexed": false,
          "internalType": "uint256",
          "name": "timestamp",
          "type": "uint256"
        },
        {
          "indexed": false,
          "internalType": "string",
          "name": "message",
          "type": "string"
        }
      ],
      "name": "NewWave",
      "type": "event"
    },
    {
      "inputs": [],
      "name": "getAllWaves",
      "outputs": [
        {
          "components": [
            {
              "internalType": "address",
              "name": "waver",
              "type": "address"
            },
            {
              "internalType": "string",
              "name": "message",
              "type": "string"
            },
            {
              "internalType": "uint256",
              "name": "timestamp",
              "type": "uint256"
            }
          ],
          "internalType": "struct WavePortal.Wave[]",
          "name": "",
          "type": "tuple[]"
        }
      ],
      "stateMutability": "view",
      "type": "function"
    },
    {
      "inputs": [],
      "name": "getTotalWaves",
      "outputs": [
        {
          "internalType": "uint256",
          "name": "",
          "type": "uint256"
        }
      ],
      "stateMutability": "view",
      "type": "function"
    },
    {
      "inputs": [
        {
          "internalType": "address",
          "name": "",
          "type": "address"
        }
      ],
      "name": "userWaves",
      "outputs": [
        {
          "internalType": "uint256",
          "name": "",
          "type": "uint256"
        }
      ],
      "stateMutability": "view",
      "type": "function"
    },
    {
      "inputs": [
        {
          "internalType": "string",
          "name": "_message",
          "type": "string"
        }
      ],
      "name": "wave",
      "outputs": [],
      "stateMutability": "nonpayable",
      "type": "function"
    }
  ],
  "bytecode": "0x60806040523480156200001157600080fd5b506200005d6040518060400160405280600c81526020017f77616731206d79206765653f00000000000000000000000000000000000000008152506200006360201b620004da1760201c565b620001f7565b62000103816040516024016200007a919062000170565b6040516020818303038152906040527f41304fac000000000000000000000000000000000000000000000000000000007bffffffffffffffffffffffffffffffffffffffffffffffffffffffff19166020820180517bffffffffffffffffffffffffffffffffffffffffffffffffffffffff83818316178352505050506200010660201b60201c565b50565b60008151905060006a636f6e736f6c652e6c6f679050602083016000808483855afa5050505050565b60006200013c8262000194565b6200014881856200019f565b93506200015a818560208601620001b0565b6200016581620001e6565b840191505092915050565b600060208201905081810360008301526200018c81846200012f565b905092915050565b600081519050919050565b600082825260208201905092915050565b60005b83811015620001d0578082015181840152602081019050620001b3565b83811115620001e0576000848401525b50505050565b6000601f19601f8301169050919050565b610ea780620002076000396000f3fe608060405234801561001057600080fd5b506004361061004c5760003560e01c80631e5c602314610051578063449d46c0146100815780639a2cdc081461009d578063bd43a908146100bb575b600080fd5b61006b60048036038101906100669190610896565b6100d9565b6040516100789190610b7e565b60405180910390f35b61009b600480360381019061009691906108bf565b6100f1565b005b6100a561033e565b6040516100b29190610b7e565b60405180910390f35b6100c3610389565b6040516100d09190610a87565b60405180910390f35b60016020528060005260406000206000915090505481565b60016000808282546101039190610c85565b9250508190555060018060003373ffffffffffffffffffffffffffffffffffffffff1673ffffffffffffffffffffffffffffffffffffffff16815260200190815260200160002060008282546101599190610c85565b925050819055506101a06040518060400160405280601d81526020017f2573206a7573742077617665642077697468206d6573736167652025730000008152503383610573565b61021f6040518060400160405280601f81526020017f257320686173206d616465206120746f74616c206f662025642077617665730081525033600160003373ffffffffffffffffffffffffffffffffffffffff1673ffffffffffffffffffffffffffffffffffffffff16815260200190815260200160002054610612565b600260405180606001604052803373ffffffffffffffffffffffffffffffffffffffff16815260200183815260200142815250908060018154018082558091505060019003906000526020600020906003020160009091909190915060008201518160000160006101000a81548173ffffffffffffffffffffffffffffffffffffffff021916908373ffffffffffffffffffffffffffffffffffffffff16021790555060208201518160010190805190602001906102de929190610776565b506040820151816002015550503373ffffffffffffffffffffffffffffffffffffffff167f5f7e16dc676677766a70e9c5628aa6c54ddb8b6e5188e2ae1e1f17f1ffbea7164283604051610333929190610b99565b60405180910390a250565b60006103816040518060400160405280601681526020017f7765206861766520256420746f74616c207761766573000000000000000000008152506000546106b1565b600054905090565b60606002805480602002602001604051908101604052809291908181526020016000905b828210156104d157838290600052602060002090600302016040518060600160405290816000820160009054906101000a900473ffffffffffffffffffffffffffffffffffffffff1673ffffffffffffffffffffffffffffffffffffffff1673ffffffffffffffffffffffffffffffffffffffff16815260200160018201805461043690610d59565b80601f016020809104026020016040519081016040528092919081815260200182805461046290610d59565b80156104af5780601f10610484576101008083540402835291602001916104af565b820191906000526020600020905b81548152906001019060200180831161049257829003601f168201915b50505050508152602001600282015481525050815260200190600101906103ad565b50505050905090565b610570816040516024016104ee9190610aa9565b6040516020818303038152906040527f41304fac000000000000000000000000000000000000000000000000000000007bffffffffffffffffffffffffffffffffffffffffffffffffffffffff19166020820180517bffffffffffffffffffffffffffffffffffffffffffffffffffffffff838183161783525050505061074d565b50565b61060d83838360405160240161058b93929190610acb565b6040516020818303038152906040527fe0e9ad4f000000000000000000000000000000000000000000000000000000007bffffffffffffffffffffffffffffffffffffffffffffffffffffffff19166020820180517bffffffffffffffffffffffffffffffffffffffffffffffffffffffff838183161783525050505061074d565b505050565b6106ac83838360405160240161062a93929190610b10565b6040516020818303038152906040527f07c81217000000000000000000000000000000000000000000000000000000007bffffffffffffffffffffffffffffffffffffffffffffffffffffffff19166020820180517bffffffffffffffffffffffffffffffffffffffffffffffffffffffff838183161783525050505061074d565b505050565b61074982826040516024016106c7929190610b4e565b6040516020818303038152906040527f9710a9d0000000000000000000000000000000000000000000000000000000007bffffffffffffffffffffffffffffffffffffffffffffffffffffffff19166020820180517bffffffffffffffffffffffffffffffffffffffffffffffffffffffff838183161783525050505061074d565b5050565b60008151905060006a636f6e736f6c652e6c6f679050602083016000808483855afa5050505050565b82805461078290610d59565b90600052602060002090601f0160209004810192826107a457600085556107eb565b82601f106107bd57805160ff19168380011785556107eb565b828001600101855582156107eb579182015b828111156107ea5782518255916020019190600101906107cf565b5b5090506107f891906107fc565b5090565b5b808211156108155760008160009055506001016107fd565b5090565b600061082c61082784610bee565b610bc9565b90508281526020810184848401111561084457600080fd5b61084f848285610d17565b509392505050565b60008135905061086681610e5a565b92915050565b600082601f83011261087d57600080fd5b813561088d848260208601610819565b91505092915050565b6000602082840312156108a857600080fd5b60006108b684828501610857565b91505092915050565b6000602082840312156108d157600080fd5b600082013567ffffffffffffffff8111156108eb57600080fd5b6108f78482850161086c565b91505092915050565b600061090c8383610a19565b905092915050565b61091d81610cdb565b82525050565b61092c81610cdb565b82525050565b600061093d82610c2f565b6109478185610c52565b93508360208202850161095985610c1f565b8060005b8581101561099557848403895281516109768582610900565b945061098183610c45565b925060208a0199505060018101905061095d565b50829750879550505050505092915050565b60006109b282610c3a565b6109bc8185610c63565b93506109cc818560208601610d26565b6109d581610e49565b840191505092915050565b60006109eb82610c3a565b6109f58185610c74565b9350610a05818560208601610d26565b610a0e81610e49565b840191505092915050565b6000606083016000830151610a316000860182610914565b5060208301518482036020860152610a4982826109a7565b9150506040830151610a5e6040860182610a69565b508091505092915050565b610a7281610d0d565b82525050565b610a8181610d0d565b82525050565b60006020820190508181036000830152610aa18184610932565b905092915050565b60006020820190508181036000830152610ac381846109e0565b905092915050565b60006060820190508181036000830152610ae581866109e0565b9050610af46020830185610923565b8181036040830152610b0681846109e0565b9050949350505050565b60006060820190508181036000830152610b2a81866109e0565b9050610b396020830185610923565b610b466040830184610a78565b949350505050565b60006040820190508181036000830152610b6881856109e0565b9050610b776020830184610a78565b9392505050565b6000602082019050610b936000830184610a78565b92915050565b6000604082019050610bae6000830185610a78565b8181036020830152610bc081846109e0565b90509392505050565b6000610bd3610be4565b9050610bdf8282610d8b565b919050565b6000604051905090565b600067ffffffffffffffff821115610c0957610c08610e1a565b5b610c1282610e49565b9050602081019050919050565b6000819050602082019050919050565b600081519050919050565b600081519050919050565b6000602082019050919050565b600082825260208201905092915050565b600082825260208201905092915050565b600082825260208201905092915050565b6000610c9082610d0d565b9150610c9b83610d0d565b9250827fffffffffffffffffffffffffffffffffffffffffffffffffffffffffffffffff03821115610cd057610ccf610dbc565b5b828201905092915050565b6000610ce682610ced565b9050919050565b600073ffffffffffffffffffffffffffffffffffffffff82169050919050565b6000819050919050565b82818337600083830152505050565b60005b83811015610d44578082015181840152602081019050610d29565b83811115610d53576000848401525b50505050565b60006002820490506001821680610d7157607f821691505b60208210811415610d8557610d84610deb565b5b50919050565b610d9482610e49565b810181811067ffffffffffffffff82111715610db357610db2610e1a565b5b80604052505050565b7f4e487b7100000000000000000000000000000000000000000000000000000000600052601160045260246000fd5b7f4e487b7100000000000000000000000000000000000000000000000000000000600052602260045260246000fd5b7f4e487b7100000000000000000000000000000000000000000000000000000000600052604160045260246000fd5b6000601f19601f8301169050919050565b610e6381610cdb565b8114610e6e57600080fd5b5056fea2646970667358221220c700f7c583066101b9822c8164ddf847693c3d381bcbcddbd591c78f3b5ac66064736f6c63430008040033",
  "linkReferences": {},
  "deployedLinkReferences": {}
}