{
  "_format": "hh-sol-artifact-1",
  "contractName": "WavePortal",
  "sourceName": "contracts/WavePortal.sol",
  "abi": [
    {
      "inputs": [],
      "stateMutability": "payable",
      "type": "constructor"
    },
    {
      "anonymous": false,
      "inputs": [
        {
          "indexed": true,
          "internalType": "address",
          "name": "from",
          "type": "address"
        },
        {
          "indexed": false,
          "internalType": "uint256",
          "name": "timestamp",
          "type": "uint256"
        },
        {
          "indexed": false,
          "internalType": "string",
          "name": "message",
          "type": "string"
        }
      ],
      "name": "NewWave",
      "type": "event"
    },
    {
      "inputs": [],
      "name": "getAllWaves",
      "outputs": [
        {
          "components": [
            {
              "internalType": "address",
              "name": "waver",
              "type": "address"
            },
            {
              "internalType": "string",
              "name": "message",
              "type": "string"
            },
            {
              "internalType": "uint256",
              "name": "timestamp",
              "type": "uint256"
            }
          ],
          "internalType": "struct WavePortal.Wave[]",
          "name": "",
          "type": "tuple[]"
        }
      ],
      "stateMutability": "view",
      "type": "function"
    },
    {
      "inputs": [],
      "name": "getTotalWaves",
      "outputs": [
        {
          "internalType": "uint256",
          "name": "",
          "type": "uint256"
        }
      ],
      "stateMutability": "view",
      "type": "function"
    },
    {
      "inputs": [
        {
          "internalType": "address",
          "name": "",
          "type": "address"
        }
      ],
      "name": "userWavedAt",
      "outputs": [
        {
          "internalType": "uint256",
          "name": "",
          "type": "uint256"
        }
      ],
      "stateMutability": "view",
      "type": "function"
    },
    {
      "inputs": [
        {
          "internalType": "address",
          "name": "",
          "type": "address"
        }
      ],
      "name": "userWaves",
      "outputs": [
        {
          "internalType": "uint256",
          "name": "",
          "type": "uint256"
        }
      ],
      "stateMutability": "view",
      "type": "function"
    },
    {
      "inputs": [
        {
          "internalType": "string",
          "name": "_message",
          "type": "string"
        }
      ],
      "name": "wave",
      "outputs": [],
      "stateMutability": "nonpayable",
      "type": "function"
    }
  ],
  "bytecode": "0x60806040526200004f6040518060400160405280600c81526020017f77616731206d79206765653f00000000000000000000000000000000000000008152506200005560201b620007b41760201c565b620001e9565b620000f5816040516024016200006c919062000162565b6040516020818303038152906040527f41304fac000000000000000000000000000000000000000000000000000000007bffffffffffffffffffffffffffffffffffffffffffffffffffffffff19166020820180517bffffffffffffffffffffffffffffffffffffffffffffffffffffffff8381831617835250505050620000f860201b60201c565b50565b60008151905060006a636f6e736f6c652e6c6f679050602083016000808483855afa5050505050565b60006200012e8262000186565b6200013a818562000191565b93506200014c818560208601620001a2565b6200015781620001d8565b840191505092915050565b600060208201905081810360008301526200017e818462000121565b905092915050565b600081519050919050565b600082825260208201905092915050565b60005b83811015620001c2578082015181840152602081019050620001a5565b83811115620001d2576000848401525b50505050565b6000601f19601f8301169050919050565b6114a980620001f96000396000f3fe608060405234801561001057600080fd5b50600436106100575760003560e01c80631e5c60231461005c578063449d46c01461008c5780639a2cdc08146100a8578063af386488146100c6578063bd43a908146100f6575b600080fd5b61007660048036038101906100719190610c0c565b610114565b6040516100839190611025565b60405180910390f35b6100a660048036038101906100a19190610c35565b61012c565b005b6100b0610600565b6040516100bd9190611025565b60405180910390f35b6100e060048036038101906100db9190610c0c565b61064b565b6040516100ed9190611025565b60405180910390f35b6100fe610663565b60405161010b9190610e9e565b60405180910390f35b60026020528060005260406000206000915090505481565b42601e600360003373ffffffffffffffffffffffffffffffffffffffff1673ffffffffffffffffffffffffffffffffffffffff168152602001908152602001600020546101799190611137565b106101b9576040517f08c379a00000000000000000000000000000000000000000000000000000000081526004016101b090611005565b60405180910390fd5b42600360003373ffffffffffffffffffffffffffffffffffffffff1673ffffffffffffffffffffffffffffffffffffffff16815260200190815260200160002081905550600160008082825461020f9190611137565b925050819055506001600260003373ffffffffffffffffffffffffffffffffffffffff1673ffffffffffffffffffffffffffffffffffffffff16815260200190815260200160002060008282546102669190611137565b925050819055506102ad6040518060400160405280601d81526020017f2573206a7573742077617665642077697468206d657373616765202573000000815250338361084d565b61032c6040518060400160405280601f81526020017f257320686173206d616465206120746f74616c206f662025642077617665730081525033600260003373ffffffffffffffffffffffffffffffffffffffff1673ffffffffffffffffffffffffffffffffffffffff168152602001908152602001600020546108ec565b600460405180606001604052803373ffffffffffffffffffffffffffffffffffffffff16815260200183815260200142815250908060018154018082558091505060019003906000526020600020906003020160009091909190915060008201518160000160006101000a81548173ffffffffffffffffffffffffffffffffffffffff021916908373ffffffffffffffffffffffffffffffffffffffff16021790555060208201518160010190805190602001906103eb929190610aec565b5060408201518160020155505060006064600154424461040b9190611137565b6104159190611137565b61041f919061126e565b90506104606040518060400160405280601681526020017f52616e646f6d20232067656e6572617465643a202573000000000000000000008152508261098b565b8060018190555060328110156105ac576104af6040518060400160405280600781526020017f257320776f6e210000000000000000000000000000000000000000000000000081525033610a27565b6000655af3107a40009050478111156104fd576040517f08c379a00000000000000000000000000000000000000000000000000000000081526004016104f490610fe5565b60405180910390fd5b60003373ffffffffffffffffffffffffffffffffffffffff168260405161052390610e89565b60006040518083038185875af1925050503d8060008114610560576040519150601f19603f3d011682016040523d82523d6000602084013e610565565b606091505b50509050806105a9576040517f08c379a00000000000000000000000000000000000000000000000000000000081526004016105a090610fc5565b60405180910390fd5b50505b3373ffffffffffffffffffffffffffffffffffffffff167f5f7e16dc676677766a70e9c5628aa6c54ddb8b6e5188e2ae1e1f17f1ffbea71642846040516105f4929190611040565b60405180910390a25050565b60006106436040518060400160405280601681526020017f7765206861766520256420746f74616c2077617665730000000000000000000081525060005461098b565b600054905090565b60036020528060005260406000206000915090505481565b60606004805480602002602001604051908101604052809291908181526020016000905b828210156107ab57838290600052602060002090600302016040518060600160405290816000820160009054906101000a900473ffffffffffffffffffffffffffffffffffffffff1673ffffffffffffffffffffffffffffffffffffffff1673ffffffffffffffffffffffffffffffffffffffff1681526020016001820180546107109061120b565b80601f016020809104026020016040519081016040528092919081815260200182805461073c9061120b565b80156107895780601f1061075e57610100808354040283529160200191610789565b820191906000526020600020905b81548152906001019060200180831161076c57829003601f168201915b5050505050815260200160028201548152505081526020019060010190610687565b50505050905090565b61084a816040516024016107c89190610ec0565b6040516020818303038152906040527f41304fac000000000000000000000000000000000000000000000000000000007bffffffffffffffffffffffffffffffffffffffffffffffffffffffff19166020820180517bffffffffffffffffffffffffffffffffffffffffffffffffffffffff8381831617835250505050610ac3565b50565b6108e783838360405160240161086593929190610f12565b6040516020818303038152906040527fe0e9ad4f000000000000000000000000000000000000000000000000000000007bffffffffffffffffffffffffffffffffffffffffffffffffffffffff19166020820180517bffffffffffffffffffffffffffffffffffffffffffffffffffffffff8381831617835250505050610ac3565b505050565b61098683838360405160240161090493929190610f57565b6040516020818303038152906040527f07c81217000000000000000000000000000000000000000000000000000000007bffffffffffffffffffffffffffffffffffffffffffffffffffffffff19166020820180517bffffffffffffffffffffffffffffffffffffffffffffffffffffffff8381831617835250505050610ac3565b505050565b610a2382826040516024016109a1929190610f95565b6040516020818303038152906040527f9710a9d0000000000000000000000000000000000000000000000000000000007bffffffffffffffffffffffffffffffffffffffffffffffffffffffff19166020820180517bffffffffffffffffffffffffffffffffffffffffffffffffffffffff8381831617835250505050610ac3565b5050565b610abf8282604051602401610a3d929190610ee2565b6040516020818303038152906040527f319af333000000000000000000000000000000000000000000000000000000007bffffffffffffffffffffffffffffffffffffffffffffffffffffffff19166020820180517bffffffffffffffffffffffffffffffffffffffffffffffffffffffff8381831617835250505050610ac3565b5050565b60008151905060006a636f6e736f6c652e6c6f679050602083016000808483855afa5050505050565b828054610af89061120b565b90600052602060002090601f016020900481019282610b1a5760008555610b61565b82601f10610b3357805160ff1916838001178555610b61565b82800160010185558215610b61579182015b82811115610b60578251825591602001919060010190610b45565b5b509050610b6e9190610b72565b5090565b5b80821115610b8b576000816000905550600101610b73565b5090565b6000610ba2610b9d84611095565b611070565b905082815260208101848484011115610bba57600080fd5b610bc58482856111c9565b509392505050565b600081359050610bdc8161145c565b92915050565b600082601f830112610bf357600080fd5b8135610c03848260208601610b8f565b91505092915050565b600060208284031215610c1e57600080fd5b6000610c2c84828501610bcd565b91505092915050565b600060208284031215610c4757600080fd5b600082013567ffffffffffffffff811115610c6157600080fd5b610c6d84828501610be2565b91505092915050565b6000610c828383610e1b565b905092915050565b610c938161118d565b82525050565b610ca28161118d565b82525050565b6000610cb3826110d6565b610cbd81856110f9565b935083602082028501610ccf856110c6565b8060005b85811015610d0b5784840389528151610cec8582610c76565b9450610cf7836110ec565b925060208a01995050600181019050610cd3565b50829750879550505050505092915050565b6000610d28826110e1565b610d328185611115565b9350610d428185602086016111d8565b610d4b8161135b565b840191505092915050565b6000610d61826110e1565b610d6b8185611126565b9350610d7b8185602086016111d8565b610d848161135b565b840191505092915050565b6000610d9c602683611126565b9150610da78261136c565b604082019050919050565b6000610dbf60008361110a565b9150610dca826113bb565b600082019050919050565b6000610de2603383611126565b9150610ded826113be565b604082019050919050565b6000610e05602383611126565b9150610e108261140d565b604082019050919050565b6000606083016000830151610e336000860182610c8a565b5060208301518482036020860152610e4b8282610d1d565b9150506040830151610e606040860182610e6b565b508091505092915050565b610e74816111bf565b82525050565b610e83816111bf565b82525050565b6000610e9482610db2565b9150819050919050565b60006020820190508181036000830152610eb88184610ca8565b905092915050565b60006020820190508181036000830152610eda8184610d56565b905092915050565b60006040820190508181036000830152610efc8185610d56565b9050610f0b6020830184610c99565b9392505050565b60006060820190508181036000830152610f2c8186610d56565b9050610f3b6020830185610c99565b8181036040830152610f4d8184610d56565b9050949350505050565b60006060820190508181036000830152610f718186610d56565b9050610f806020830185610c99565b610f8d6040830184610e7a565b949350505050565b60006040820190508181036000830152610faf8185610d56565b9050610fbe6020830184610e7a565b9392505050565b60006020820190508181036000830152610fde81610d8f565b9050919050565b60006020820190508181036000830152610ffe81610dd5565b9050919050565b6000602082019050818103600083015261101e81610df8565b9050919050565b600060208201905061103a6000830184610e7a565b92915050565b60006040820190506110556000830185610e7a565b81810360208301526110678184610d56565b90509392505050565b600061107a61108b565b9050611086828261123d565b919050565b6000604051905090565b600067ffffffffffffffff8211156110b0576110af61132c565b5b6110b98261135b565b9050602081019050919050565b6000819050602082019050919050565b600081519050919050565b600081519050919050565b6000602082019050919050565b600082825260208201905092915050565b600081905092915050565b600082825260208201905092915050565b600082825260208201905092915050565b6000611142826111bf565b915061114d836111bf565b9250827fffffffffffffffffffffffffffffffffffffffffffffffffffffffffffffffff038211156111825761118161129f565b5b828201905092915050565b60006111988261119f565b9050919050565b600073ffffffffffffffffffffffffffffffffffffffff82169050919050565b6000819050919050565b82818337600083830152505050565b60005b838110156111f65780820151818401526020810190506111db565b83811115611205576000848401525b50505050565b6000600282049050600182168061122357607f821691505b60208210811415611237576112366112fd565b5b50919050565b6112468261135b565b810181811067ffffffffffffffff821117156112655761126461132c565b5b80604052505050565b6000611279826111bf565b9150611284836111bf565b925082611294576112936112ce565b5b828206905092915050565b7f4e487b7100000000000000000000000000000000000000000000000000000000600052601160045260246000fd5b7f4e487b7100000000000000000000000000000000000000000000000000000000600052601260045260246000fd5b7f4e487b7100000000000000000000000000000000000000000000000000000000600052602260045260246000fd5b7f4e487b7100000000000000000000000000000000000000000000000000000000600052604160045260246000fd5b6000601f19601f8301169050919050565b7f4661696c656420746f207769746864726177206d6f6e65792066726f6d20636f60008201527f6e74726163740000000000000000000000000000000000000000000000000000602082015250565b50565b7f547279696e6720746f207769746864726177206d6f7265206d6f6e657920746860008201527f616e2074686520636f6e74726163742068617300000000000000000000000000602082015250565b7f57616974203330207365636f6e6473206265666f726520776176696e6720616760008201527f61696e0000000000000000000000000000000000000000000000000000000000602082015250565b6114658161118d565b811461147057600080fd5b5056fea2646970667358221220f0e8596639b9567da6e19ff4ce218c23a961e7fc7b5c7b4791df1ba5f5c9f5e864736f6c63430008040033",
  "linkReferences": {},
  "deployedLinkReferences": {}
}